:1000000027C04BC04AC049C048C066C346C045C0AF
:1000100044C043C042C041C040C03FC03EC00000D9
:10002000000037000000000038000000000036002B
:10003000020202020202020202020102040810206D
:100040002004100801020000000000000000A700CA
:1000500011241FBECFE5D2E0DEBFCDBF10E0A0E689
:10006000B0E0E0E2FBE002C005900D92A637B107D8
:10007000D9F711E0A6E7B0E001C01D92AD32B1079B
:10008000E1F710E0C0E5D0E003C02297FE010BD5F8
:10009000CE34D107D1F760D441C5B2CFA0E0B0E0F3
:1000A000E3E5F0E00CC5EC01A880B980CA80DB80F4
:1000B000A114B104C104D10441F484E2A82E89ED55
:1000C000B82E8BE5C82E87E0D82EC601B5012DE1EC
:1000D00033EF41E050E0CAD427EA31E440E050E099
:1000E0008AD47B018C01C601B5012DE133EF41E0DB
:1000F00050E0BCD4CA01B9012CEE34EF4FEF5FEFF2
:100100007AD46E0D7F1D801F911F97FF04C0615030
:10011000704080409048688379838A839B839B01E9
:10012000AC015F77B901CA01CDB7DEB7EAE0E3C43D
:10013000B5DF089580E690E0B1DF08956093600038
:10014000709361008093620090936300089518D3C8
:1001500060937A0070937B0080937C0090937D0085
:100160000FD360937E0070937F0080938000909304
:10017000810008951F93CF93DF93182FEB0116167C
:10018000170614F060E004C06F3F71052CF061E0C9
:10019000AFD38FEF90E00BC061E0AAD3CE01FED2C7
:1001A000812F60E0A5D38FEF90E08C1B9D0BF6D2E2
:1001B000DF91CF911F910895CF92DF92EF92FF923E
:1001C0000F931F93CF93DF93809164000CD36C0146
:1001D000009721F481E0809321010BC088E5C816C7
:1001E00082E0D80624F061E0C62ED12C02C0CC24D7
:1001F000DD248091780090917900C816D90649F0E5
:10020000BFD260937A0070937B0080937C009093C0
:100210007D00B6D220917A0030917B0040917C0025
:1002200050917D00621B730B840B950B20916E0027
:1002300030916F00442737FD4095542F261737071C
:100240004807590708F0D4C080916C0090916D0068
:10025000C816D90609F48BC0D0926D00C0926C000C
:100260008FD260937E0070937F0080938000909384
:10027000810080916C0090916D00019709F041C060
:100280001092820080918500882351F581E080934F
:100290008500E0907000F0907100EE0CFF1C0027CC
:1002A000F7FC0095102F61E070E080E090E027E01F
:1002B00030E040E050E07BD3A80197019CD36093ED
:1002C0008A0070938B0080938C0090938D0058D29D
:1002D00060938600709387008093880090938900D4
:1002E00080919700882309F483C04AD220911B0192
:1002F00030911C01621B730B7093200160931F01EE
:1003000026C021E02093820080919000882341F450
:100310008AEF90E090939600809395002093900050
:1003200080919700882361F48091680060E0E0D2BA
:1003300081E0809397001092190110921A014FC02A
:100340001FD220911B0130911C01621B730B209165
:100350001901E22FF0E0E756FF4F6083672F770F18
:10036000770B61832E5F2F772093190138C080911E
:1003700097008823E9F181E0C816D104C9F500D2BD
:1003800020917A0030917B0040917C0050917D005B
:10039000621B730B840B950B2091720030917300DC
:1003A000442737FD4095542F26173707480759072C
:1003B000F8F41092970020911901E22FF0E080915B
:1003C000740090917500E756FF4F8083892F990F35
:1003D000990B81832F5F20931A0110921901D0D1BC
:1003E00060931B0170931C0180931D0190931E016B
:1003F000809198008823C9F0809197008823A9F400
:10040000C0E0D0E0FE01E756FF4F82E291E0BE017E
:10041000408156D12196C038D105A1F782E291E002
:1004200061E870E040911A014BD180919700809370
:10043000980020918300309184008091820088236D
:1004400021F0B9016E5F7F4F03C0B9016250704067
:100450006F3F71051CF06FEF70E004C077FF02C0C2
:1004600060E070E070938400609383008091660088
:10047000D3D180918500882309F451C081D1209186
:100480008600309187004091880050918900621B5E
:10049000730B840B950B20918A0030918B00409157
:1004A0008C0050918D006217730784079507A8F59B
:1004B00067D1C0918E00D0918F002091860030913D
:1004C00087004091880050918900621B730B840B58
:1004D000950B2091700030917100442737FD4095B5
:1004E000542FA2D220FD04C0BE016F5F7F4F03C016
:1004F000BE01615070406F3F71051CF06FEF70E0FE
:1005000004C077FF02C060E070E070938F006093DA
:100510008E008091760080D102C01092850030D18B
:10052000209191003091920040919300509194005D
:10053000621B730B840B950B6B3071058105910564
:10054000E0F0809195009091960002978F3F910581
:100550001CF08FEF90E004C097FF02C080E090E0B5
:1005600090939600809395000BD1609391007093C7
:100570009200809393009093940060919500709105
:1005800096001616170614F01092900080916A00DB
:1005900090916B00EFDD80919700882309F04BC0AC
:1005A00080911901482F50E0FA01E756FF4F208152
:1005B000222379F0918180E030E0822B932B90937D
:1005C000200180931F0141FF04C08091680061E019
:1005D00003C08091680060E08BD1D2D020911B01D4
:1005E00030911C0140911D0150911E01621B730B43
:1005F000840B950B20911F0130912001442737FD7A
:100600004095542F2617370748075907A0F48091C3
:1006100019018E5F8093190190911A01981710F4B7
:1006200010921901ADD060931B0170931C0180934F
:100630001D0190931E01D0927900C0927800DF9145
:10064000CF911F910F91FF90EF90DF90CF90089581
:10065000CF93DF9381E0C7D0C7D18091640060E081
:1006600008D18091760061E004D18091680061E05A
:1006700000D180916A0061E0FCD08091660061E069
:10068000F8D0C0E0D0E082E291E0BE0112D0FE01DD
:10069000E756FF4F80832196C038D105A1F782E24B
:1006A00091E061E870E005D080931A01DF91CF916D
:1006B0000895E199FECF7FBB6EBBE09A8DB308959C
:1006C000E199FECF1CBA7FBB6EBB4DBB0FB6F89451
:1006D000E29AE19A0FBE08951F920F920FB60F9201
:1006E00011242F933F934F935F936F937F938F9337
:1006F0009F93AF93BF9320912701309128014091A0
:10070000290150912A0170912B01DA01C901029649
:10071000A11DB11D672F6A5F6D3730F06D57DA018B
:10072000C9010396A11DB11D60932B018093270180
:1007300090932801A0932901B0932A01809123016D
:1007400090912401A0912501B09126010196A11D4F
:10075000B11D8093230190932401A0932501B093B0
:100760002601BF91AF919F918F917F916F915F9182
:100770004F913F912F910F900FBE0F901F901895A2
:100780008FB7F894209127013091280140912901D9
:1007900050912A018FBFB901CA010895019739F01C
:1007A000019729F0880F991F01970197F1F7089594
:1007B00078948AB582608ABD8AB581608ABD83B724
:1007C000826083BF83B7816083BF89B7826089BF3E
:1007D00080B7826080BF80B7816080BF329A319AD3
:1007E000309A379A0895982F863008F0965097706F
:1007F00080912C018295880F880F807C892B87B986
:10080000369A3699FECF24B145B1942F80E030E07E
:10081000282B392BC90108951F93CF93DF93182FED
:10082000EB0161E026D02097D1F0CF3FD105D1F088
:10083000E12FF0E0EC5BFF4F8491813019F08230C2
:1008400059F405C08AB580688ABDC9BD0EC08AB595
:1008500080628ABDC8BD09C0C038D1051CF4812F93
:1008600060E002C0812F61E043D0DF91CF911F9102
:100870000895CF93DF93482F50E0CA01865C9F4FC5
:10088000FC013491405D5F4FFA018491882369F146
:1008900090E0880F991FFC01E25EFF4FA591B49193
:1008A000FC01EC5DFF4FC591D491662351F42FB745
:1008B000F8948C91932F909589238C938881892328
:1008C0000BC0623061F42FB7F8948C91932F909500
:1008D00089238C938881832B88832FBF06C09FB781
:1008E000F8948C91832B8C939FBFDF91CF910895C7
:1008F000482F50E0CA018C5B9F4FFC012491CA0134
:10090000865C9F4FFC019491405D5F4FFA013491EA
:10091000332309F1222359F0213019F0223039F420
:1009200003C08AB58F7702C08AB58F7D8ABDE32F59
:10093000F0E0EE0FFF1FEC5DFF4FA591B4912FB7D4
:10094000F894662321F48C919095892302C08C91B0
:10095000892B8C932FBF0895CF93DF9329DF78DE07
:10096000C0E0D0E029DC2097E9F34ADBFBCFEF922F
:10097000FF920F931F937B018C0161157105810517
:10098000910529F420E030E040E050E009C0D2DBDE
:10099000A80197016BD0AC01CB01DA019C01AD013C
:1009A000B901CA011F910F91FF90EF900895EF9246
:1009B000FF920F931F937B018C01621773078407CB
:1009C00095075CF4261B370B480B590BCA01B9017C
:1009D000CEDFE60EF71E081F191FB701C8011F91D1
:1009E0000F91FF90EF900895009721F0BC0180E0F7
:1009F00090E0A4DB0895FF27EE27BB27AA2760FF1E
:100A000004C0A20FB31FE41FF51F220F331F441FA2
:100A1000551F969587957795679589F7009776077F
:100A200071F7CF01BD010895A1E21A2EAA1BBB1BCD
:100A3000FD010DC0AA1FBB1FEE1FFF1FA217B307AA
:100A4000E407F50720F0A21BB30BE40BF50B661FC0
:100A5000771F881F991F1A9469F760957095809584
:100A600090959B01AC01BD01CF01089597FB092E24
:100A700005260ED057FD04D0D7DF0AD0001C38F46D
:100A800050954095309521953F4F4F4F5F4F0895BA
:100A9000F6F790958095709561957F4F8F4F9F4F9A
:100AA0000895EE0FFF1F0590F491E02D09942F9209
:100AB0003F924F925F926F927F928F929F92AF92EE
:100AC000BF92CF92DF92EF92FF920F931F93CF933B
:100AD000DF93CDB7DEB7CA1BDB0B0FB6F894DEBFD2
:100AE0000FBECDBF09942A88398848885F846E84F8
:100AF0007D848C849B84AA84B984C884DF80EE8042
:100B0000FD800C811B81AA81B981CE0FD11D0FB64A
:100B1000F894DEBF0FBECDBFED010895F894FFCF6E
:100B20000100000002000100030002000100320089
:060B30009001B80BD00794
:00000001FF
